:1000000031C04BC077C049C048C047C046C045C09A
:1000100044C043C042C041C040C03FC03EC00902CE
:10002000190001010080640904000001FF000000C4
:100030000705810308006412011001000000088117
:10004000179F0C04010002030116035500530042E0
:1000500000740069006E00790053005000490004EC
:100060000309040011241FBECFE5D2E0DEBFCDBFDF
:1000700010E0A0E6B0E0E8E3F4E102C005900D92E4
:10008000A037B107D9F721E0A0E7B0E001C01D9289
:10009000A839B207E1F73FD7CDC9B2CFA82FB92F02
:1000A00080E090E041E050EA609530E009C02D9199
:1000B00082279795879510F084279527305EC8F39F
:1000C0006F5FA8F30895EADF8D939D930895A6E0EE
:1000D00088279927AA9569F00197E1F3B399FCCF96
:1000E000B39BFECF81E09927A6B3019611F0A871CA
:1000F000D9F70895CF93CFB7CF93C395B39BE9F7C3
:10010000B39B0BC0B39B09C0B39B07C0B39B05C097
:10011000B39B03C0B39B01C0D5C00F92DF93C091C6
:100120006A01DD27CF58DE4F012EB39B03C0DF915C
:100130000F90E6CF2F930F931F934F932FEF4F6F97
:1001400006B303FB20F95F933F9350E03BE065C0AB
:1001500016B30126502953FDC89556B3012703FB5A
:1001600025F92F7306B3B1F05027102713FB26F99A
:1001700006B22230F0F000C016B3012703FB27F9C6
:100180000126502906B22430E8F54F77206816B3CF
:100190000000F6CF50274F7D206206B2102F0000DE
:1001A00000C006B300265029102713FB26F906B21B
:1001B000E2CF4F7B06B3206400C0DACF012650297E
:1001C000187106B269F14E7F2160012F16B328C065
:1001D000002650294D7F06B22260102F29C001262B
:1001E00050294B7F06B22460012F2DC016B3012683
:1001F0005029477F2860000006B22EC04F7E06B30C
:10020000206130C0422706B34993002650291027A9
:1002100006B24FEF13FB20F9297F16B379F218715C
:1002200059F10126502906B2012703FB21F9237F4A
:1002300006B371F2002650293150D0F006B21027D3
:1002400013FB22F9277E16B351F20126502901270C
:1002500003FB06B223F92F7C49F2000006B31027F6
:1002600013FB24F90026502906B22F7939F270CFFA
:1002700010E21ABF002719C03B503195C31BD04074
:1002800010E21ABF0881033C09F10B34F9F0209108
:1002900068011981110F1213EDCF4A81441F0936ED
:1002A00051F10D3211F0013E29F700936F013F919A
:1002B0005F914F911F910F912F91DF910F90CAB7CE
:1002C000C5FD1BCFCF91CFBFCF91189520916F0166
:1002D000222369F310916D01112379F534307AF1FD
:1002E00030936D012093690110916A013BE0311B4D
:1002F00030936A0124C000916D010130F4F40AE5E5
:100300004F7049F43091610034FD1AC000936100D0
:10031000C1E5D1E019C030915C0134FD11C00093FA
:100320005C01CDE5D1E010C0052710E000C021C080
:10033000052710E0C89508BB14C03AE501C032EDAE
:10034000032EC0E0D0E032E017B31861C39A08B3BF
:1003500017BB58E120E84FEF20FF052708BB279582
:1003600017951C3F28F700004552B0F720FF0527DE
:10037000279508BB17951C3FB8F629913A9561F768
:10038000077E10916E01110F08BBC250D04011F0D2
:100390001093680110E21ABF086017B3177E402F50
:1003A000477E54E05A95F1F708BB17BB48BB7FCF97
:1003B000CF93DF9360916D01635067FDA4C080917E
:1003C0006A01CCE0D0E0C81BD109CF58DE4F809144
:1003D00069018D3209F0DEC0683009F092C083EC0B
:1003E000809351018AE580936100109271008881A9
:1003F000807671F0CE01E9D18F3F09F47AC09F81F8
:1004000091117DC09E81981708F079C0892F77C01F
:100410002A8110925A01998191110AC010925B01B0
:100420002AE531E082E030936C0120936B01E7CF45
:10043000953029F420936E012AE531E0F4CF96300F
:1004400009F040C09B81913059F487E390E090938C
:100450006C0180936B0190E482E190937100CFCFA7
:10046000923049F48EE190E090936C0180936B019F
:1004700090E489E1F2CF933019F5211109C08FE59D
:1004800090E090936C0180936B0190E484E0E5CF61
:100490002130B1F0223049F489E490E090936C016E
:1004A00080936B0190E486E1D8CF233049F485E650
:1004B00090E090936C0180936B0190E088E0CDCF49
:1004C00090E4CBCF983071F0993019F420937001FB
:1004D000B3CF9A3059F09B3009F0AECF9BE49093A4
:1004E0005D01AACF20E731E081E09DCF2AE531E030
:1004F000FBCF988197FD8E8190E890937100809357
:10050000600010926D018091610084FF2BC0C0914A
:100510006000CF3F39F16C2FC93008F068E08C2FB4
:10052000861B809360008091510198E88927809311
:100530005101CC2359F02091710027FF3DC082E585
:1005400091E0C2D0C82F893008F05BC06C2F82E5E3
:1005500091E0B9DDCC5FCC3019F08FEF8093600073
:10056000C093610084E196B3987131F48150D9F75A
:1005700010926E0110926801C1E08111C0E090916B
:100580007000C91721F0811145D3C0937000DF912D
:10059000CF9108958091710087FFB3CFCE01ADD088
:1005A0008F3F21F48EE180936100ABCF882309F463
:1005B000A8CF10926000A5CF80916B0190916C0143
:1005C00026FF16C0A2E5B1E0FC01262F34913D9331
:1005D00031962150D9F72FEF260F30E02F5F3F4F94
:1005E000820F931F90936C0180936B01C62FAECF47
:1005F000DC01E2E5F1E0262F3D9131932150E1F756
:10060000EACF8FEF80936000CEE1AACFAC9A8BB790
:1006100080628BBFECE5F1E08BE481838AE5808327
:100620000895FC01DB01AC014C5F5F4F619128E054
:1006300030E080E890E0762F782309F0C09A70913E
:100640006400072E00C00000000000000A94D1F7EB
:10065000C29A70916400072E00C0000000000000E4
:100660000A94D1F7990FB1999F5FC098C298869567
:100670002150310901F79D934E175F07B9F6089590
:1006800080914D0190914E019C012F5F3F4F30931F
:100690004E0120934D0120914A0127FF02C0880F8F
:1006A000991F80FD0FC020934601292F2695209386
:1006B0004701969587958093480162E471E086E44E
:1006C00091E0AFCF2860EFCFEF92FF921F93CF93CF
:1006D000DF93162FEC017C01E60EF11CCE15DF0531
:1006E00039F4812FDF91CF911F91FF90EF90089502
:1006F000C7DF809145018993F1CFDF92EF92FF929E
:100700000F931F93CF93DF93EC018C01060F111D04
:1007100030E6D32EC017D10749F481E0DF91CF91A5
:100720001F910F91FF90EF90DF9008958991809332
:100730004901A6DF809146018D2580934601F12C69
:10074000E12C80914B0190914C01E816F90610F7CD
:1007500062E471E086E491E064DF80914901909168
:100760004501891308C090915001891721F090919B
:100770004F018913CFCF8091640090E025E0880F6E
:10078000991F2A95E1F7E80EF91EDBCF38B3242F25
:100790002095232338B3432B680F791F86179707BB
:1007A00009F40895FC013191CF0158E048BB330FA3
:1007B0005A9500C008F028BB00C0000028BB21F0FB
:1007C00000C000C000C0F2CFE9CFCF93DF93EC01AF
:1007D000998191110BC081E28983D0936C01C09300
:1007E0006B0198E0892FDF91CF910895913039F412
:1007F00086B38883D0936C01C0936B01F3CF6A8179
:10080000923019F468BB90E0EDCF462F477021E09D
:1008100030E0042E02C0220F331F0A94E2F7933017
:1008200021F488B32095282304C0943021F488B3A0
:10083000282B28BBE8CF953051F460936400B99819
:1008400087B3856287BB88B3887D88BBDCCF963051
:1008500049F4B898C098B998C198BA98C298BD9808
:10086000C598D1CF973051F4BE01CE010296D9DEA2
:10087000D0936C01C0936B0194E0B4CF983031F405
:10088000609350018B8180934F01BDCF8C81EC81AF
:10089000FD81F0934E01E0934D01993029F480E2FF
:1008A00080934A019FEF9ECF9B3011F480EAF8CFEE
:1008B000EA81FB81F0934C01E0934B019A3011F4F3
:1008C00080E4EECF9C3011F480ECEACF9D3029F427
:1008D00087B32095282327BB96CF9E3019F487B382
:1008E000282BF9CF9F3009F5611112C08091350195
:1008F00087B9A59A369A3699FECF84B1888385B197
:100900008983D0936C01C0936B0114BA92E06ACFD3
:10091000613031F480913501816087B9A29AEACFC4
:10092000623041F78FE887B9E5CF903161F4B89A2A
:10093000B99A8AB5806A8ABD8AB583608ABD83B751
:10094000856083BF60CF913121F469BD8C8188BD02
:100950005ACF923109F46BCF933109F462CF9431BD
:1009600081F486B390E02823392302C0359527957A
:100970004A95E2F72883D0936C01C0936B0191E014
:1009800031CF963161F5611106C083B78B7F83BF8C
:1009900083B78D7F12C0613049F483B78B7F83BFEB
:1009A00083B7826083BF83B78E7FCBCF623049F439
:1009B00083B78B7F83BF83B7826083BF83B7816038
:1009C000C0CF633031F483B7846083BF83B78D7F3A
:1009D000E9CF643009F017CF83B78460D8CF9F3157
:1009E00061F48B8190E0982F8827680F792F711D13
:1009F000709363006093620006CF903219F41ABCC2
:100A000013BE01CF913231F46093900181E0809365
:100A10003401F9CE923219F483E18883ACCF93325A
:100A2000C9F4379A86B19A81892B86B99B81913016
:100A300059F038F0923009F0E6CE809135018069A6
:100A400006C010923501CECE80913501806880932A
:100A50003501D9CE983249F487E891E090936C0142
:100A600080936B0190918F01BDCE993211F482E099
:100A7000CECF9A3231F483E08093340160939001B9
:100A8000C2CE9B3211F484E0C2CF9C3211F488E0D4
:100A9000BECF9D3211F489E0EFCF9E3259F49BE036
:100AA00090933401609390019B8190939101809386
:100AB0009201A9CE9F3259F4613031F4B89AB99AB3
:100AC000BA9A60933C019FCE10923C019CCE903329
:100AD00041F4609338019B819093370180933601F4
:100AE00092CE913331F470E07093410160934001F4
:100AF0008ACE85E0923309F48ACF933321F4609350
:100B0000900186E084CF963371F565FF1BC0E091BC
:100B10007200E03CB8F48B81AE2FB0E0AC58BF4F10
:100B20008C938C81A1E0AE0FB0E0AC58BF4F8C939A
:100B300083E08E0F809372008D81EE5FF0E0EC58C1
:100B4000FF4F80838A8184FF5ECE8091720088236C
:100B500009F459CE81E18093340187B3822B87BB9E
:100B60002093730050CE9733A1F480916D00909143
:100B70006E0052D480916D0090916E006B81019651
:100B80004BD480916D0090916E006C81029644D49C
:100B90003ACE892F807F803EE9F48AE08093340149
:100BA000892F87708093900198709093910120E035
:100BB00080919001281708F026CE822F90E00296AF
:100BC000FE01E80FF91F308180579E4FFC013083F2
:100BD0002F5FEECF803F09F016CE87E0809334017F
:100BE000892F88708093900197709093910120E0F5
:100BF00080919101281708F006CE822F90E002968E
:100C0000FE01E80FF91F308180579E4FFC013083B1
:100C10002F5FEECFDF92EF92FF920F931F93CF9350
:100C2000DF9308E010E0C0E0D0E8DD2EDC0ED1BE9E
:100C30004EDA7C0184E3E81689E0F8060CF4CD2D49
:100C4000D6950150110989F78FEF8C0F81BF0C2FBA
:100C500010E00F5F1F4F81B78017110669F064F035
:100C6000C1BF61B790E080E0DF91CF911F910F91FC
:100C7000FF90EF90DF90D0C32ADA8453994097FF1A
:100C800003C09195819591098E159F0514F4C1B704
:100C90007C0181B78F5F81BFDECF882331F1B898A7
:100CA00090E0209140013091410192171306F8F035
:100CB000BA9890E0209140013091410192171306BB
:100CC000E0F0BA9A90E020914001309141019217F2
:100CD0001306C8F08111B89A80E02091400130914C
:100CE000410182171306A8F00895B89AD9CF25E0DC
:100CF0002A95F1F700C09F5FD4CF25E02A95F1F740
:100D000000C09F5FD7CF25E02A95F1F700C09F5F15
:100D1000DACF95E09A95F1F700C08F5FDECFB898F3
:100D200080E0209140013091410182171306E8F0E4
:100D3000BA9880E02091400130914101821713065A
:100D4000D0F086B390E0209140013091410192179C
:100D50001306B8F0BA9A90E0209140013091410119
:100D600092171306A0F08170089525E02A95F1F7F7
:100D700000C08F5FD6CF95E09A95F1F700C08F5FE6
:100D8000D9CF25E02A95F1F700C09F5FDCCF25E0A1
:100D90002A95F1F700C09F5FDFCF88B38A7F88BBB9
:100DA000BA98B89880E020914001309141018217B3
:100DB000130608F0089595E09A95F1F700C08F5F4B
:100DC000F2CF87B38A7F87BB80E0209140013091CA
:100DD00041018217130698F0B89A80E020914001F3
:100DE000309141018217130680F0BA9A80E0209179
:100DF0004001309141018217130668F0089595E093
:100E00009A95F1F700C08F5FE0CF95E09A95F1F7E2
:100E100000C08F5FE3CF95E09A95F1F700C08F5F38
:100E2000E6CFB89A80E020914001309141018217CD
:100E30001306E0F0BA9A80E0209140013091410120
:100E400082171306C8F0BA9880E0209140013091D3
:100E5000410182171306B0F0B89880E0209140015C
:100E6000309141018217130698F0089595E09A9504
:100E7000F1F700C08F5FD7CF95E09A95F1F700C0EA
:100E80008F5FDACF95E09A95F1F700C08F5FDDCFE5
:100E900095E09A95F1F700C08F5FE0CFCF93DF9395
:100EA000D82FC8E08D2F8078F8DEDD0FC150D1F744
:100EB000DF91CF9134CF1F93CF93DF93182FD8E0DA
:100EC000C0E0CC0F2CDFC82BD150D9F780E02091A7
:100ED0004001309141018217130688F081E0111121
:100EE00080E0DBDE80E020914001309141018217FB
:100EF000130658F08C2FDF91CF911F91089595E044
:100F00009A95F1F700C08F5FE2CF95E09A95F1F7DF
:100F100000C08F5FE8CF80E287BB88BB90E080E0B5
:100F200073D28F3F09F081BFC0916D00D0916E00E8
:100F3000CE016AD2082FCE01019666D2182FCE01BB
:100F4000029662D200530A3030F410531A3018F46B
:100F500080538A3088F065E3CE015ED280916D00C7
:100F600090916E0061E3019657D280916D0090914F
:100F70006E0062E3029650D2C0916D00D0916E0077
:100F8000CE0142D290E09093680080936700CE013A
:100F900001963AD290E090936A0080936900CE0166
:100FA000029632D290E090936C0080936B00BB9AD3
:100FB00084E1E2EBF1EF3197F1F700C000008150DE
:100FC000C1F7BB9885E090E0909341018093400188
:100FD000109263001092620088E19EE00FB6F894D0
:100FE000A89581BD0FBE91BD10923B0110923A01B0
:100FF0001092390110923801109237011092360187
:1010000010923D011092340101DB7894B898C09899
:10101000B998C198BA98C298BD98C598CAE1D0E469
:101020001BE100E8A895C4D9E0913401E23108F051
:1010300083C0F0E0E35EF74F099480C010C05AC04F
:1010400098C0C1C0EDC000C11DC15DC15EC17CC101
:101050007DC172C071C070C06FC06EC0A7C1B89AA8
:10106000B998BA9AC29A10928701809190018093A0
:101070003F0100933E0180913E01811102C081E059
:101080001AC1C09880E020916200309163008217FD
:10109000130620F180913F0190913E01892309F0D0
:1010A000C09AC29880918701880F8093870196B378
:1010B0008091870196959170890F8093870180E0D8
:1010C00020916200309163008217130668F0C29A83
:1010D00080913E01869580933E01CDCFF5E0FA9553
:1010E000F1F700C08F5FCFCF45E04A95F1F700C020
:1010F0008F5FE6CFBA9AC2988BEB97E00197F1F732
:1011000000C000002FB7F894C29AE0E2F1E03197F6
:10111000F1F700C0BA9886B391E082FB882780F986
:101120008927809387012FBFEBE9F6E03197F1F72C
:10113000BA9AC29A90938F011092340180913C0127
:10114000882309F46FCF80913D01811143C18091C3
:10115000380180933B018091370180933A0180915F
:1011600036018093390180913D018F5F80933D016D
:1011700059CF8091900180933E01BA9A88E02FB7B1
:10118000F894C29890913E0190FF13C0F1E2FA9555
:10119000F1F7C29AE7E0F1E03197F1F700C0000003
:1011A00090913E01969590933E012FBF815039F763
:1011B000C3CFE7EFF0E03197F1F70000C29AF7E311
:1011C000FA95F1F7EDCF1092870188E090918701B1
:1011D000969590938701BA9A2FB7F894C29841E2F6
:1011E0004A95F1F7C29A57E35A95F1F7BA9896B330
:1011F00092FB992790F990933E012FBFE2EEF0E029
:101200003197F1F700C0000090913E01992329F039
:10121000909187019068909387018150B9F62FCF04
:10122000BA9A9FB7F894C298F1E2FA95F1F7C29A88
:1012300047E34A95F1F7BA9886B382FB882780F98D
:10124000809387019FBF1BCFBA9A8FB7F894C2983B
:101250009091900190FF0CC051E25A95F1F7C29A1B
:10126000E7E0F1E03197F1F700C000008FBF64CFF5
:10127000E7EFF0E03197F1F70000C29AF7E3FA9553
:10128000F1F7F4CFB99AB898BA9AC29810933F017F
:10129000CDB9809190018111C59810923E01809145
:1012A0009101E0913E01E81748F080919001811191
:1012B000C59A80913E0180938F013ECFF0E0EE56BB
:1012C000FE4F80818FB9DEB980913F018DB980E0FA
:1012D00020916200309163008217130670F0769BB4
:1012E000F3CF80913E01E82FF0E09FB1E957FE4F28
:1012F00090838F5F80933E01D2CF45E04A95F1F70E
:1013000000C08F5FE5CF49DD17CF90E080E059DD69
:1013100080919001C3DD80933E0180938701AFCE21
:10132000EF2DF0E0EE56FE4F8081B8DD80933E0158
:10133000F39480919001F81698F3809191018111B6
:1013400070DD80913E01E9CFF12CF3CF80919001C7
:10135000F12C811113C080919101F81600F5CF2C6A
:10136000D12C81E0A8DDF601E957FE4F8083F3948C
:10137000F2CF81E0A0DDF6018083F3948F2D90E021
:10138000209191012150330BAC0149575E4F6A0106
:101390008217930774F380E08EDDF60180838091DD
:1013A000920181113EDD8091910185CF8CE190E128
:1013B0000197F1F700C00000FFB6F8946091720049
:1013C00070E04091730084E790E0E0D910927200E1
:1013D000FFBE4DCF90913B01981780F4C09890913B
:1013E0003D0180913A01891758F4C19890913D01CF
:1013F00080913901891730F4C298B5CEC09AEFCFE9
:10140000C19AF4CFC29AAFCEE199FECF9FBB8EBBFB
:10141000E09A99278DB30895262FE199FECF1CBA43
:101420009FBB8EBB2DBB0FB6F894E29AE19A0FBE1C
:0814300001960895F894FFCF26
:10143800FF5A0A000A080335003100320020000074
:00000001FF
